{
  "_format": "hh-sol-artifact-1",
  "contractName": "Factory",
  "sourceName": "contracts/Factory.sol",
  "abi": [
    {
      "inputs": [
        {
          "internalType": "address",
          "name": "tokenManagerV2Deployer_",
          "type": "address"
        },
        {
          "internalType": "address",
          "name": "protocolFeeRecipient_",
          "type": "address"
        },
        {
          "internalType": "uint24",
          "name": "fee_",
          "type": "uint24"
        },
        {
          "internalType": "uint8",
          "name": "oversubscriptionMultiple_",
          "type": "uint8"
        },
        {
          "components": [
            {
              "internalType": "address",
              "name": "WBNB",
              "type": "address"
            },
            {
              "internalType": "address",
              "name": "V3factory",
              "type": "address"
            },
            {
              "internalType": "address",
              "name": "V3PositionManager",
              "type": "address"
            },
            {
              "internalType": "address",
              "name": "V3LPLocker",
              "type": "address"
            },
            {
              "internalType": "int24",
              "name": "tickLower",
              "type": "int24"
            },
            {
              "internalType": "int24",
              "name": "tickUpper",
              "type": "int24"
            }
          ],
          "internalType": "struct IFactory.PoolConfig",
          "name": "poolConfig_",
          "type": "tuple"
        }
      ],
      "stateMutability": "nonpayable",
      "type": "constructor"
    },
    {
      "anonymous": false,
      "inputs": [
        {
          "indexed": false,
          "internalType": "uint256",
          "name": "id",
          "type": "uint256"
        },
        {
          "indexed": false,
          "internalType": "address",
          "name": "tokenManager",
          "type": "address"
        }
      ],
      "name": "GrantCreated",
      "type": "event"
    },
    {
      "anonymous": false,
      "inputs": [
        {
          "indexed": true,
          "internalType": "address",
          "name": "previousOwner",
          "type": "address"
        },
        {
          "indexed": true,
          "internalType": "address",
          "name": "newOwner",
          "type": "address"
        }
      ],
      "name": "OwnershipTransferred",
      "type": "event"
    },
    {
      "anonymous": false,
      "inputs": [
        {
          "indexed": false,
          "internalType": "uint8",
          "name": "oversubscriptionMultiple",
          "type": "uint8"
        }
      ],
      "name": "SetOversubscriptionMultiple",
      "type": "event"
    },
    {
      "anonymous": false,
      "inputs": [],
      "name": "SetPoolConfig",
      "type": "event"
    },
    {
      "anonymous": false,
      "inputs": [
        {
          "indexed": false,
          "internalType": "uint24",
          "name": "fee",
          "type": "uint24"
        }
      ],
      "name": "SetProtocolFee",
      "type": "event"
    },
    {
      "anonymous": false,
      "inputs": [
        {
          "indexed": false,
          "internalType": "address",
          "name": "protocolFeeRecipient",
          "type": "address"
        }
      ],
      "name": "SetProtocolFeeRecipient",
      "type": "event"
    },
    {
      "inputs": [
        {
          "internalType": "uint256",
          "name": "amount0",
          "type": "uint256"
        },
        {
          "internalType": "uint256",
          "name": "amount1",
          "type": "uint256"
        }
      ],
      "name": "calculateSqrtPriceX96",
      "outputs": [
        {
          "internalType": "uint160",
          "name": "",
          "type": "uint160"
        }
      ],
      "stateMutability": "pure",
      "type": "function"
    },
    {
      "inputs": [
        {
          "internalType": "string",
          "name": "logo_",
          "type": "string"
        },
        {
          "internalType": "string",
          "name": "desc_",
          "type": "string"
        },
        {
          "internalType": "string",
          "name": "link_",
          "type": "string"
        },
        {
          "internalType": "string",
          "name": "name_",
          "type": "string"
        },
        {
          "internalType": "string",
          "name": "symbol_",
          "type": "string"
        },
        {
          "internalType": "address",
          "name": "creator_",
          "type": "address"
        },
        {
          "internalType": "uint256",
          "name": "totalSupply_",
          "type": "uint256"
        },
        {
          "components": [
            {
              "internalType": "uint256",
              "name": "price",
              "type": "uint256"
            },
            {
              "internalType": "uint256",
              "name": "rigidCapAmount",
              "type": "uint256"
            },
            {
              "internalType": "uint256",
              "name": "userRigidCapAmount",
              "type": "uint256"
            },
            {
              "internalType": "uint256",
              "name": "startAt",
              "type": "uint256"
            },
            {
              "internalType": "uint256",
              "name": "duration",
              "type": "uint256"
            }
          ],
          "internalType": "struct ITokenManagerV2.GrantParams",
          "name": "grantParams_",
          "type": "tuple"
        },
        {
          "components": [
            {
              "internalType": "uint24",
              "name": "V3LPTradingFee",
              "type": "uint24"
            },
            {
              "internalType": "uint256",
              "name": "amountToken",
              "type": "uint256"
            },
            {
              "internalType": "uint256",
              "name": "amountBNB",
              "type": "uint256"
            }
          ],
          "internalType": "struct IFactory.PoolParams",
          "name": "poolParams_",
          "type": "tuple"
        }
      ],
      "name": "createGrant",
      "outputs": [],
      "stateMutability": "nonpayable",
      "type": "function"
    },
    {
      "inputs": [
        {
          "internalType": "uint256",
          "name": "id",
          "type": "uint256"
        }
      ],
      "name": "getGrant",
      "outputs": [
        {
          "components": [
            {
              "internalType": "uint256",
              "name": "id",
              "type": "uint256"
            },
            {
              "internalType": "address",
              "name": "manager",
              "type": "address"
            },
            {
              "internalType": "string",
              "name": "logo",
              "type": "string"
            },
            {
              "internalType": "string",
              "name": "desc",
              "type": "string"
            },
            {
              "internalType": "string",
              "name": "link",
              "type": "string"
            }
          ],
          "internalType": "struct IFactory.Grant",
          "name": "",
          "type": "tuple"
        }
      ],
      "stateMutability": "view",
      "type": "function"
    },
    {
      "inputs": [],
      "name": "grantId",
      "outputs": [
        {
          "internalType": "uint256",
          "name": "",
          "type": "uint256"
        }
      ],
      "stateMutability": "view",
      "type": "function"
    },
    {
      "inputs": [
        {
          "internalType": "uint256",
          "name": "",
          "type": "uint256"
        }
      ],
      "name": "grants",
      "outputs": [
        {
          "internalType": "uint256",
          "name": "id",
          "type": "uint256"
        },
        {
          "internalType": "address",
          "name": "manager",
          "type": "address"
        },
        {
          "internalType": "string",
          "name": "logo",
          "type": "string"
        },
        {
          "internalType": "string",
          "name": "desc",
          "type": "string"
        },
        {
          "internalType": "string",
          "name": "link",
          "type": "string"
        }
      ],
      "stateMutability": "view",
      "type": "function"
    },
    {
      "inputs": [],
      "name": "oversubscriptionMultiple",
      "outputs": [
        {
          "internalType": "uint8",
          "name": "",
          "type": "uint8"
        }
      ],
      "stateMutability": "view",
      "type": "function"
    },
    {
      "inputs": [],
      "name": "owner",
      "outputs": [
        {
          "internalType": "address",
          "name": "",
          "type": "address"
        }
      ],
      "stateMutability": "view",
      "type": "function"
    },
    {
      "inputs": [],
      "name": "poolConfig",
      "outputs": [
        {
          "internalType": "address",
          "name": "WBNB",
          "type": "address"
        },
        {
          "internalType": "address",
          "name": "V3factory",
          "type": "address"
        },
        {
          "internalType": "address",
          "name": "V3PositionManager",
          "type": "address"
        },
        {
          "internalType": "address",
          "name": "V3LPLocker",
          "type": "address"
        },
        {
          "internalType": "int24",
          "name": "tickLower",
          "type": "int24"
        },
        {
          "internalType": "int24",
          "name": "tickUpper",
          "type": "int24"
        }
      ],
      "stateMutability": "view",
      "type": "function"
    },
    {
      "inputs": [],
      "name": "protocolFee",
      "outputs": [
        {
          "internalType": "uint24",
          "name": "",
          "type": "uint24"
        }
      ],
      "stateMutability": "view",
      "type": "function"
    },
    {
      "inputs": [],
      "name": "protocolFeeRecipient",
      "outputs": [
        {
          "internalType": "address",
          "name": "",
          "type": "address"
        }
      ],
      "stateMutability": "view",
      "type": "function"
    },
    {
      "inputs": [],
      "name": "renounceOwnership",
      "outputs": [],
      "stateMutability": "nonpayable",
      "type": "function"
    },
    {
      "inputs": [
        {
          "internalType": "uint8",
          "name": "oversubscriptionMultiple_",
          "type": "uint8"
        }
      ],
      "name": "setOversubscriptionMultiple",
      "outputs": [],
      "stateMutability": "nonpayable",
      "type": "function"
    },
    {
      "inputs": [
        {
          "components": [
            {
              "internalType": "address",
              "name": "WBNB",
              "type": "address"
            },
            {
              "internalType": "address",
              "name": "V3factory",
              "type": "address"
            },
            {
              "internalType": "address",
              "name": "V3PositionManager",
              "type": "address"
            },
            {
              "internalType": "address",
              "name": "V3LPLocker",
              "type": "address"
            },
            {
              "internalType": "int24",
              "name": "tickLower",
              "type": "int24"
            },
            {
              "internalType": "int24",
              "name": "tickUpper",
              "type": "int24"
            }
          ],
          "internalType": "struct IFactory.PoolConfig",
          "name": "poolConfig_",
          "type": "tuple"
        }
      ],
      "name": "setPoolConfig",
      "outputs": [],
      "stateMutability": "nonpayable",
      "type": "function"
    },
    {
      "inputs": [
        {
          "internalType": "uint24",
          "name": "fee_",
          "type": "uint24"
        }
      ],
      "name": "setProtocolFee",
      "outputs": [],
      "stateMutability": "nonpayable",
      "type": "function"
    },
    {
      "inputs": [
        {
          "internalType": "address",
          "name": "protocolFeeRecipient_",
          "type": "address"
        }
      ],
      "name": "setProtocolFeeRecipient",
      "outputs": [],
      "stateMutability": "nonpayable",
      "type": "function"
    },
    {
      "inputs": [],
      "name": "tokenManagerV2Deployer",
      "outputs": [
        {
          "internalType": "address",
          "name": "",
          "type": "address"
        }
      ],
      "stateMutability": "view",
      "type": "function"
    },
    {
      "inputs": [
        {
          "internalType": "address",
          "name": "newOwner",
          "type": "address"
        }
      ],
      "name": "transferOwnership",
      "outputs": [],
      "stateMutability": "nonpayable",
      "type": "function"
    }
  ],
  "bytecode": "0x60a060405260006002553480156200001657600080fd5b50604051620049e2380380620049e283398181016040528101906200003c91906200042a565b60006200004e6200031b60201b60201c565b9050806000806101000a81548173ffffffffffffffffffffffffffffffffffffffff021916908373ffffffffffffffffffffffffffffffffffffffff1602179055508073ffffffffffffffffffffffffffffffffffffffff16600073ffffffffffffffffffffffffffffffffffffffff167f8be0079c531659141344cd1fd0a4f28419497f9722a3daafe3b4186f6b6457e060405160405180910390a3508473ffffffffffffffffffffffffffffffffffffffff1660808173ffffffffffffffffffffffffffffffffffffffff1660601b8152505082600060146101000a81548162ffffff021916908362ffffff16021790555083600160006101000a81548173ffffffffffffffffffffffffffffffffffffffff021916908373ffffffffffffffffffffffffffffffffffffffff16021790555081600160146101000a81548160ff021916908360ff16021790555080600360008201518160000160006101000a81548173ffffffffffffffffffffffffffffffffffffffff021916908373ffffffffffffffffffffffffffffffffffffffff16021790555060208201518160010160006101000a81548173ffffffffffffffffffffffffffffffffffffffff021916908373ffffffffffffffffffffffffffffffffffffffff16021790555060408201518160020160006101000a81548173ffffffffffffffffffffffffffffffffffffffff021916908373ffffffffffffffffffffffffffffffffffffffff16021790555060608201518160030160006101000a81548173ffffffffffffffffffffffffffffffffffffffff021916908373ffffffffffffffffffffffffffffffffffffffff16021790555060808201518160030160146101000a81548162ffffff021916908360020b62ffffff16021790555060a08201518160030160176101000a81548162ffffff021916908360020b62ffffff1602179055509050505050505050620005a8565b600033905090565b600081519050620003348162000540565b92915050565b6000815190506200034b816200055a565b92915050565b600060c082840312156200036457600080fd5b6200037060c0620004ad565b90506000620003828482850162000323565b6000830152506020620003988482850162000323565b6020830152506040620003ae8482850162000323565b6040830152506060620003c48482850162000323565b6060830152506080620003da848285016200033a565b60808301525060a0620003f0848285016200033a565b60a08301525092915050565b6000815190506200040d8162000574565b92915050565b60008151905062000424816200058e565b92915050565b600080600080600061014086880312156200044457600080fd5b6000620004548882890162000323565b9550506020620004678882890162000323565b94505060406200047a88828901620003fc565b93505060606200048d8882890162000413565b9250506080620004a08882890162000351565b9150509295509295909350565b6000604051905081810181811067ffffffffffffffff82111715620004d757620004d66200053e565b5b8060405250919050565b6000620004ee8262000502565b9050919050565b60008160020b9050919050565b600073ffffffffffffffffffffffffffffffffffffffff82169050919050565b600062ffffff82169050919050565b600060ff82169050919050565bfe5b6200054b81620004e1565b81146200055757600080fd5b50565b6200056581620004f5565b81146200057157600080fd5b50565b6200057f8162000522565b81146200058b57600080fd5b50565b620005998162000531565b8114620005a557600080fd5b50565b60805160601c614412620005d0600039806105ba52806105e0528061083152506144126000f3fe60806040523480156200001157600080fd5b5060043610620001245760003560e01c80639695e19511620000b1578063b8cc6c93116200007b578063b8cc6c9314620002d4578063e3881898146200030a578063e521cb92146200032c578063f2fde38b146200034c578063f30c0e08146200036c5762000124565b80639695e1951462000235578063a000bf4f146200025c578063af6bf2a81462000292578063b0e21e8a14620002b25762000124565b806364df049e11620000f357806364df049e14620001c5578063715018a614620001e75780637feedaa114620001f35780638da5cb5b14620002135762000124565b80630c0debea146200012957806338216d3914620001635780634e1b7ada1462000185578063634bc7ac14620001a5575b600080fd5b62000147600480360381019062000141919062002017565b6200038e565b6040516200015a95949392919062002721565b60405180910390f35b6200016d620005b8565b6040516200017c9190620024ad565b60405180910390f35b620001a360048036038101906200019d919062001e69565b620005dc565b005b620001c36004803603810190620001bd919062001fbf565b62000a1f565b005b620001cf62000e50565b604051620001de9190620024ad565b60405180910390f35b620001f162000e76565b005b6200021160048036038101906200020b919062001feb565b62000fe8565b005b6200021d620010f7565b6040516200022c9190620024ad565b60405180910390f35b6200023f62001120565b6040516200025396959493929190620024ca565b60405180910390f35b6200027a600480360381019062000274919062002043565b620011e4565b6040516200028991906200269d565b60405180910390f35b620002b06004803603810190620002aa919062002084565b62001219565b005b620002bc62001324565b604051620002cb9190620026ba565b60405180910390f35b620002f26004803603810190620002ec919062002017565b62001339565b60405162000301919062002679565b60405180910390f35b62000314620015ba565b60405162000323919062002793565b60405180910390f35b6200034a600480360381019062000344919062001e11565b620015cd565b005b6200036a600480360381019062000364919062001e11565b620016fe565b005b62000376620018f7565b604051620003859190620026d7565b60405180910390f35b60076020528060005260406000206000915090508060000154908060010160009054906101000a900473ffffffffffffffffffffffffffffffffffffffff1690806002018054600181600116156101000203166002900480601f0160208091040260200160405190810160405280929190818152602001828054600181600116156101000203166002900480156200046a5780601f106200043e576101008083540402835291602001916200046a565b820191906000526020600020905b8154815290600101906020018083116200044c57829003601f168201915b505050505090806003018054600181600116156101000203166002900480601f0160208091040260200160405190810160405280929190818152602001828054600181600116156101000203166002900480156200050c5780601f10620004e0576101008083540402835291602001916200050c565b820191906000526020600020905b815481529060010190602001808311620004ee57829003601f168201915b505050505090806004018054600181600116156101000203166002900480601f016020809104026020016040519081016040528092919081815260200182805460018160011615610100020316600290048015620005ae5780601f106200058257610100808354040283529160200191620005ae565b820191906000526020600020905b8154815290600101906020018083116200059057829003601f168201915b5050505050905085565b7f000000000000000000000000000000000000000000000000000000000000000081565b60007f000000000000000000000000000000000000000000000000000000000000000073ffffffffffffffffffffffffffffffffffffffff1663775c300c6040518163ffffffff1660e01b8152600401602060405180830381600087803b1580156200064757600080fd5b505af11580156200065c573d6000803e3d6000fd5b505050506040513d601f19601f8201168201806040525081019062000682919062001e3d565b9050600087878387604051620006989062001a63565b620006a7949392919062002596565b604051809103906000f080158015620006c4573d6000803e3d6000fd5b5090506000604051806101200160405280600360000160009054906101000a900473ffffffffffffffffffffffffffffffffffffffff1673ffffffffffffffffffffffffffffffffffffffff168152602001600360010160009054906101000a900473ffffffffffffffffffffffffffffffffffffffff1673ffffffffffffffffffffffffffffffffffffffff168152602001600360020160009054906101000a900473ffffffffffffffffffffffffffffffffffffffff1673ffffffffffffffffffffffffffffffffffffffff1681526020016003800160009054906101000a900473ffffffffffffffffffffffffffffffffffffffff1673ffffffffffffffffffffffffffffffffffffffff168152602001856000015162ffffff1681526020016003800160149054906101000a900460020b60020b81526020016003800160179054906101000a900460020b60020b815260200185602001518152602001856040015181525090507f000000000000000000000000000000000000000000000000000000000000000073ffffffffffffffffffffffffffffffffffffffff16637403824e84848a89866040518663ffffffff1660e01b81526004016200089295949392919062002537565b600060405180830381600087803b158015620008ad57600080fd5b505af1158015620008c2573d6000803e3d6000fd5b505050506000620008d2620018fd565b90506040518060a001604052808281526020018573ffffffffffffffffffffffffffffffffffffffff1681526020018e81526020018d81526020018c815250600760008381526020019081526020016000206000820151816000015560208201518160010160006101000a81548173ffffffffffffffffffffffffffffffffffffffff021916908373ffffffffffffffffffffffffffffffffffffffff16021790555060408201518160020190805190602001906200099392919062001a71565b506060820151816003019080519060200190620009b292919062001a71565b506080820151816004019080519060200190620009d192919062001a71565b509050507fb0c85c6e30b26fd1619440e74900b0afdfdeaf189b266bddae269025eacf9f97818560405162000a08929190620026f4565b60405180910390a150505050505050505050505050565b62000a2962001913565b73ffffffffffffffffffffffffffffffffffffffff1662000a49620010f7565b73ffffffffffffffffffffffffffffffffffffffff161462000ad3576040517f08c379a00000000000000000000000000000000000000000000000000000000081526004018080602001828103825260208152602001807f4f776e61626c653a2063616c6c6572206973206e6f7420746865206f776e657281525060200191505060405180910390fd5b600073ffffffffffffffffffffffffffffffffffffffff16816000015173ffffffffffffffffffffffffffffffffffffffff16141562000b4a576040517f08c379a000000000000000000000000000000000000000000000000000000000815260040162000b4190620025f1565b60405180910390fd5b600073ffffffffffffffffffffffffffffffffffffffff16816020015173ffffffffffffffffffffffffffffffffffffffff16141562000bc1576040517f08c379a000000000000000000000000000000000000000000000000000000000815260040162000bb89062002613565b60405180910390fd5b600073ffffffffffffffffffffffffffffffffffffffff16816040015173ffffffffffffffffffffffffffffffffffffffff16141562000c38576040517f08c379a000000000000000000000000000000000000000000000000000000000815260040162000c2f9062002635565b60405180910390fd5b600073ffffffffffffffffffffffffffffffffffffffff16816060015173ffffffffffffffffffffffffffffffffffffffff16141562000caf576040517f08c379a000000000000000000000000000000000000000000000000000000000815260040162000ca69062002657565b60405180910390fd5b80600360008201518160000160006101000a81548173ffffffffffffffffffffffffffffffffffffffff021916908373ffffffffffffffffffffffffffffffffffffffff16021790555060208201518160010160006101000a81548173ffffffffffffffffffffffffffffffffffffffff021916908373ffffffffffffffffffffffffffffffffffffffff16021790555060408201518160020160006101000a81548173ffffffffffffffffffffffffffffffffffffffff021916908373ffffffffffffffffffffffffffffffffffffffff16021790555060608201518160030160006101000a81548173ffffffffffffffffffffffffffffffffffffffff021916908373ffffffffffffffffffffffffffffffffffffffff16021790555060808201518160030160146101000a81548162ffffff021916908360020b62ffffff16021790555060a08201518160030160176101000a81548162ffffff021916908360020b62ffffff1602179055509050507fa117934e0403c26433812910523871b89c0e8079ea434fe83a61b4580ce42f5760405160405180910390a150565b600160009054906101000a900473ffffffffffffffffffffffffffffffffffffffff1681565b62000e8062001913565b73ffffffffffffffffffffffffffffffffffffffff1662000ea0620010f7565b73ffffffffffffffffffffffffffffffffffffffff161462000f2a576040517f08c379a00000000000000000000000000000000000000000000000000000000081526004018080602001828103825260208152602001807f4f776e61626c653a2063616c6c6572206973206e6f7420746865206f776e657281525060200191505060405180910390fd5b600073ffffffffffffffffffffffffffffffffffffffff1660008054906101000a900473ffffffffffffffffffffffffffffffffffffffff1673ffffffffffffffffffffffffffffffffffffffff167f8be0079c531659141344cd1fd0a4f28419497f9722a3daafe3b4186f6b6457e060405160405180910390a360008060006101000a81548173ffffffffffffffffffffffffffffffffffffffff021916908373ffffffffffffffffffffffffffffffffffffffff160217905550565b62000ff262001913565b73ffffffffffffffffffffffffffffffffffffffff1662001012620010f7565b73ffffffffffffffffffffffffffffffffffffffff16146200109c576040517f08c379a00000000000000000000000000000000000000000000000000000000081526004018080602001828103825260208152602001807f4f776e61626c653a2063616c6c6572206973206e6f7420746865206f776e657281525060200191505060405180910390fd5b80600060146101000a81548162ffffff021916908362ffffff1602179055507f4a215897834353d70c13203562893fdc3881b5fcfd0b94435332148bc94f992b81604051620010ec9190620026ba565b60405180910390a150565b60008060009054906101000a900473ffffffffffffffffffffffffffffffffffffffff16905090565b60038060000160009054906101000a900473ffffffffffffffffffffffffffffffffffffffff16908060010160009054906101000a900473ffffffffffffffffffffffffffffffffffffffff16908060020160009054906101000a900473ffffffffffffffffffffffffffffffffffffffff16908060030160009054906101000a900473ffffffffffffffffffffffffffffffffffffffff16908060030160149054906101000a900460020b908060030160179054906101000a900460020b905086565b60008062001203836c010000000000000000000000008002866200191b565b90506200121081620019f9565b91505092915050565b6200122362001913565b73ffffffffffffffffffffffffffffffffffffffff1662001243620010f7565b73ffffffffffffffffffffffffffffffffffffffff1614620012cd576040517f08c379a00000000000000000000000000000000000000000000000000000000081526004018080602001828103825260208152602001807f4f776e61626c653a2063616c6c6572206973206e6f7420746865206f776e657281525060200191505060405180910390fd5b80600160146101000a81548160ff021916908360ff1602179055507f3e789ee3bc733be986d94e62a42da9adcc9f8ff6f0c6e453a7e54bdc43c0d5ba8160405162001319919062002793565b60405180910390a150565b600060149054906101000a900462ffffff1681565b6200134362001b08565b600760008381526020019081526020016000206040518060a0016040529081600082015481526020016001820160009054906101000a900473ffffffffffffffffffffffffffffffffffffffff1673ffffffffffffffffffffffffffffffffffffffff1673ffffffffffffffffffffffffffffffffffffffff168152602001600282018054600181600116156101000203166002900480601f0160208091040260200160405190810160405280929190818152602001828054600181600116156101000203166002900480156200145e5780601f1062001432576101008083540402835291602001916200145e565b820191906000526020600020905b8154815290600101906020018083116200144057829003601f168201915b50505050508152602001600382018054600181600116156101000203166002900480601f016020809104026020016040519081016040528092919081815260200182805460018160011615610100020316600290048015620015045780601f10620014d85761010080835404028352916020019162001504565b820191906000526020600020905b815481529060010190602001808311620014e657829003601f168201915b50505050508152602001600482018054600181600116156101000203166002900480601f016020809104026020016040519081016040528092919081815260200182805460018160011615610100020316600290048015620015aa5780601f106200157e57610100808354040283529160200191620015aa565b820191906000526020600020905b8154815290600101906020018083116200158c57829003601f168201915b5050505050815250509050919050565b600160149054906101000a900460ff1681565b620015d762001913565b73ffffffffffffffffffffffffffffffffffffffff16620015f7620010f7565b73ffffffffffffffffffffffffffffffffffffffff161462001681576040517f08c379a00000000000000000000000000000000000000000000000000000000081526004018080602001828103825260208152602001807f4f776e61626c653a2063616c6c6572206973206e6f7420746865206f776e657281525060200191505060405180910390fd5b80600160006101000a81548173ffffffffffffffffffffffffffffffffffffffff021916908373ffffffffffffffffffffffffffffffffffffffff1602179055507f0adecf76fa869b35236c53f76ec37546457966d5848d8be34a4508acdd51f7c381604051620016f39190620024ad565b60405180910390a150565b6200170862001913565b73ffffffffffffffffffffffffffffffffffffffff1662001728620010f7565b73ffffffffffffffffffffffffffffffffffffffff1614620017b2576040517f08c379a00000000000000000000000000000000000000000000000000000000081526004018080602001828103825260208152602001807f4f776e61626c653a2063616c6c6572206973206e6f7420746865206f776e657281525060200191505060405180910390fd5b600073ffffffffffffffffffffffffffffffffffffffff168173ffffffffffffffffffffffffffffffffffffffff1614156200183a576040517f08c379a0000000000000000000000000000000000000000000000000000000008152600401808060200182810382526026815260200180620043b76026913960400191505060405180910390fd5b8073ffffffffffffffffffffffffffffffffffffffff1660008054906101000a900473ffffffffffffffffffffffffffffffffffffffff1673ffffffffffffffffffffffffffffffffffffffff167f8be0079c531659141344cd1fd0a4f28419497f9722a3daafe3b4186f6b6457e060405160405180910390a3806000806101000a81548173ffffffffffffffffffffffffffffffffffffffff021916908373ffffffffffffffffffffffffffffffffffffffff16021790555050565b60025481565b6000600160025401600281905550600254905090565b600033905090565b6000806000801985870985870292508281108382030391505060008114156200195957600084116200194c57600080fd5b83820492505050620019f2565b8084116200196657600080fd5b600084868809905082811182039150808303925060008586600003169050808604955080840493506001818260000304019050808302841793506000600287600302189050808702600203810290508087026002038102905080870260020381029050808702600203810290508087026002038102905080870260020381029050808502955050505050505b9392505050565b6000600382111562001a4f57819050600060016002848162001a1757fe5b040190505b8181101562001a485780915060028182858162001a3557fe5b04018162001a3f57fe5b04905062001a1c565b5062001a5e565b6000821462001a5d57600190505b5b919050565b611a31806200298683390190565b828054600181600116156101000203166002900490600052602060002090601f01602090048101928262001aa9576000855562001af5565b82601f1062001ac457805160ff191683800117855562001af5565b8280016001018555821562001af5579182015b8281111562001af457825182559160200191906001019062001ad7565b5b50905062001b04919062001b4d565b5090565b6040518060a0016040528060008152602001600073ffffffffffffffffffffffffffffffffffffffff1681526020016060815260200160608152602001606081525090565b5b8082111562001b6857600081600090555060010162001b4e565b5090565b600062001b8362001b7d84620027e4565b620027b0565b90508281526020810184848401111562001b9c57600080fd5b62001ba9848285620028ab565b509392505050565b60008135905062001bc28162002903565b92915050565b60008151905062001bd98162002903565b92915050565b60008135905062001bf0816200291d565b92915050565b600082601f83011262001c0857600080fd5b813562001c1a84826020860162001b6c565b91505092915050565b600060a0828403121562001c3657600080fd5b62001c4260a0620027b0565b9050600062001c548482850162001de3565b600083015250602062001c6a8482850162001de3565b602083015250604062001c808482850162001de3565b604083015250606062001c968482850162001de3565b606083015250608062001cac8482850162001de3565b60808301525092915050565b600060c0828403121562001ccb57600080fd5b62001cd760c0620027b0565b9050600062001ce98482850162001bb1565b600083015250602062001cff8482850162001bb1565b602083015250604062001d158482850162001bb1565b604083015250606062001d2b8482850162001bb1565b606083015250608062001d418482850162001bdf565b60808301525060a062001d578482850162001bdf565b60a08301525092915050565b60006060828403121562001d7657600080fd5b62001d826060620027b0565b9050600062001d948482850162001dcc565b600083015250602062001daa8482850162001de3565b602083015250604062001dc08482850162001de3565b60408301525092915050565b60008135905062001ddd8162002937565b92915050565b60008135905062001df48162002951565b92915050565b60008135905062001e0b816200296b565b92915050565b60006020828403121562001e2457600080fd5b600062001e348482850162001bb1565b91505092915050565b60006020828403121562001e5057600080fd5b600062001e608482850162001bc8565b91505092915050565b60008060008060008060008060006101e08a8c03121562001e8957600080fd5b60008a013567ffffffffffffffff81111562001ea457600080fd5b62001eb28c828d0162001bf6565b99505060208a013567ffffffffffffffff81111562001ed057600080fd5b62001ede8c828d0162001bf6565b98505060408a013567ffffffffffffffff81111562001efc57600080fd5b62001f0a8c828d0162001bf6565b97505060608a013567ffffffffffffffff81111562001f2857600080fd5b62001f368c828d0162001bf6565b96505060808a013567ffffffffffffffff81111562001f5457600080fd5b62001f628c828d0162001bf6565b95505060a062001f758c828d0162001bb1565b94505060c062001f888c828d0162001de3565b93505060e062001f9b8c828d0162001c23565b92505061018062001faf8c828d0162001d63565b9150509295985092959850929598565b600060c0828403121562001fd257600080fd5b600062001fe28482850162001cb8565b91505092915050565b60006020828403121562001ffe57600080fd5b60006200200e8482850162001dcc565b91505092915050565b6000602082840312156200202a57600080fd5b60006200203a8482850162001de3565b91505092915050565b600080604083850312156200205757600080fd5b6000620020678582860162001de3565b92505060206200207a8582860162001de3565b9150509250929050565b6000602082840312156200209757600080fd5b6000620020a78482850162001dfa565b91505092915050565b620020bb8162002844565b82525050565b620020cc8162002844565b82525050565b620020dd8162002858565b82525050565b620020ee8162002858565b82525050565b6000620021018262002817565b6200210d818562002822565b93506200211f818560208601620028ba565b6200212a81620028f2565b840191505092915050565b6000620021428262002817565b6200214e818562002833565b935062002160818560208601620028ba565b6200216b81620028f2565b840191505092915050565b600062002185600c8362002833565b91507f496e76616c69642057424e4200000000000000000000000000000000000000006000830152602082019050919050565b6000620021c760118362002833565b91507f496e76616c6964205633666163746f72790000000000000000000000000000006000830152602082019050919050565b60006200220960198362002833565b91507f496e76616c6964205633506f736974696f6e4d616e61676572000000000000006000830152602082019050919050565b60006200224b60128362002833565b91507f496e76616c69642056334c504c6f636b657200000000000000000000000000006000830152602082019050919050565b60a0820160008201516200229660008501826200247a565b506020820151620022ab60208501826200247a565b506040820151620022c060408501826200247a565b506060820151620022d560608501826200247a565b506080820151620022ea60808501826200247a565b50505050565b600060a0830160008301516200230a60008601826200247a565b5060208301516200231f6020860182620020b0565b5060408301518482036040860152620023398282620020f4565b91505060608301518482036060860152620023558282620020f4565b91505060808301518482036080860152620023718282620020f4565b9150508091505092915050565b61012082016000820151620023976000850182620020b0565b506020820151620023ac6020850182620020b0565b506040820151620023c16040850182620020b0565b506060820151620023d66060850182620020b0565b506080820151620023eb608085018262002458565b5060a08201516200240060a0850182620020d2565b5060c08201516200241560c0850182620020d2565b5060e08201516200242a60e08501826200247a565b50610100820151620024416101008501826200247a565b50505050565b620024528162002865565b82525050565b620024638162002885565b82525050565b620024748162002885565b82525050565b620024858162002894565b82525050565b620024968162002894565b82525050565b620024a7816200289e565b82525050565b6000602082019050620024c46000830184620020c1565b92915050565b600060c082019050620024e16000830189620020c1565b620024f06020830188620020c1565b620024ff6040830187620020c1565b6200250e6060830186620020c1565b6200251d6080830185620020e3565b6200252c60a0830184620020e3565b979650505050505050565b6000610220820190506200254f6000830188620020c1565b6200255e6020830187620020c1565b6200256d6040830186620020c1565b6200257c60608301856200227e565b6200258c6101008301846200237e565b9695505050505050565b60006080820190508181036000830152620025b2818762002135565b90508181036020830152620025c8818662002135565b9050620025d96040830185620020c1565b620025e860608301846200248b565b95945050505050565b600060208201905081810360008301526200260c8162002176565b9050919050565b600060208201905081810360008301526200262e81620021b8565b9050919050565b600060208201905081810360008301526200265081620021fa565b9050919050565b6000602082019050818103600083015262002672816200223c565b9050919050565b60006020820190508181036000830152620026958184620022f0565b905092915050565b6000602082019050620026b4600083018462002447565b92915050565b6000602082019050620026d1600083018462002469565b92915050565b6000602082019050620026ee60008301846200248b565b92915050565b60006040820190506200270b60008301856200248b565b6200271a6020830184620020c1565b9392505050565b600060a0820190506200273860008301886200248b565b620027476020830187620020c1565b81810360408301526200275b818662002135565b9050818103606083015262002771818562002135565b9050818103608083015262002787818462002135565b90509695505050505050565b6000602082019050620027aa60008301846200249c565b92915050565b6000604051905081810181811067ffffffffffffffff82111715620027da57620027d9620028f0565b5b8060405250919050565b600067ffffffffffffffff821115620028025762002801620028f0565b5b601f19601f8301169050602081019050919050565b600081519050919050565b600082825260208201905092915050565b600082825260208201905092915050565b6000620028518262002865565b9050919050565b60008160020b9050919050565b600073ffffffffffffffffffffffffffffffffffffffff82169050919050565b600062ffffff82169050919050565b6000819050919050565b600060ff82169050919050565b82818337600083830152505050565b60005b83811015620028da578082015181840152602081019050620028bd565b83811115620028ea576000848401525b50505050565bfe5b6000601f19601f8301169050919050565b6200290e8162002844565b81146200291a57600080fd5b50565b620029288162002858565b81146200293457600080fd5b50565b620029428162002885565b81146200294e57600080fd5b50565b6200295c8162002894565b81146200296857600080fd5b50565b62002976816200289e565b81146200298257600080fd5b5056fe60806040523480156200001157600080fd5b5060405162001a3138038062001a31833981810160405260808110156200003757600080fd5b81019080805160405193929190846401000000008211156200005857600080fd5b838201915060208201858111156200006f57600080fd5b82518660018202830111640100000000821117156200008d57600080fd5b8083526020830192505050908051906020019080838360005b83811015620000c3578082015181840152602081019050620000a6565b50505050905090810190601f168015620000f15780820380516001836020036101000a031916815260200191505b50604052602001805160405193929190846401000000008211156200011557600080fd5b838201915060208201858111156200012c57600080fd5b82518660018202830111640100000000821117156200014a57600080fd5b8083526020830192505050908051906020019080838360005b838110156200018057808201518184015260208101905062000163565b50505050905090810190601f168015620001ae5780820380516001836020036101000a031916815260200191505b50604052602001805190602001909291908051906020019092919050505083838160039080519060200190620001e6929190620004a6565b508060049080519060200190620001ff929190620004a6565b506012600560006101000a81548160ff021916908360ff16021790555050506200023082826200023a60201b60201c565b505050506200055c565b600073ffffffffffffffffffffffffffffffffffffffff168273ffffffffffffffffffffffffffffffffffffffff161415620002de576040517f08c379a000000000000000000000000000000000000000000000000000000000815260040180806020018281038252601f8152602001807f45524332303a206d696e7420746f20746865207a65726f20616464726573730081525060200191505060405180910390fd5b620002f2600083836200041860201b60201c565b6200030e816002546200041d60201b62000afd1790919060201c565b6002819055506200036c816000808573ffffffffffffffffffffffffffffffffffffffff1673ffffffffffffffffffffffffffffffffffffffff168152602001908152602001600020546200041d60201b62000afd1790919060201c565b6000808473ffffffffffffffffffffffffffffffffffffffff1673ffffffffffffffffffffffffffffffffffffffff168152602001908152602001600020819055508173ffffffffffffffffffffffffffffffffffffffff16600073ffffffffffffffffffffffffffffffffffffffff167fddf252ad1be2c89b69c2b068fc378daa952ba7f163c4a11628f55a4df523b3ef836040518082815260200191505060405180910390a35050565b505050565b6000808284019050838110156200049c576040517f08c379a000000000000000000000000000000000000000000000000000000000815260040180806020018281038252601b8152602001807f536166654d6174683a206164646974696f6e206f766572666c6f77000000000081525060200191505060405180910390fd5b8091505092915050565b828054600181600116156101000203166002900490600052602060002090601f016020900481019282620004de57600085556200052a565b82601f10620004f957805160ff19168380011785556200052a565b828001600101855582156200052a579182015b82811115620005295782518255916020019190600101906200050c565b5b5090506200053991906200053d565b5090565b5b80821115620005585760008160009055506001016200053e565b5090565b6114c5806200056c6000396000f3fe608060405234801561001057600080fd5b50600436106100b45760003560e01c806342966c681161007157806342966c68146102c757806370a082311461030b57806395d89b4114610363578063a457c2d7146103e6578063a9059cbb1461044a578063dd62ed3e146104ae576100b4565b806306fdde03146100b9578063095ea7b31461013c57806318160ddd146101a057806323b872dd146101be578063313ce567146102425780633950935114610263575b600080fd5b6100c1610526565b6040518080602001828103825283818151815260200191508051906020019080838360005b838110156101015780820151818401526020810190506100e6565b50505050905090810190601f16801561012e5780820380516001836020036101000a031916815260200191505b509250505060405180910390f35b6101886004803603604081101561015257600080fd5b81019080803573ffffffffffffffffffffffffffffffffffffffff169060200190929190803590602001909291905050506105c8565b60405180821515815260200191505060405180910390f35b6101a86105e6565b6040518082815260200191505060405180910390f35b61022a600480360360608110156101d457600080fd5b81019080803573ffffffffffffffffffffffffffffffffffffffff169060200190929190803573ffffffffffffffffffffffffffffffffffffffff169060200190929190803590602001909291905050506105f0565b60405180821515815260200191505060405180910390f35b61024a6106c9565b604051808260ff16815260200191505060405180910390f35b6102af6004803603604081101561027957600080fd5b81019080803573ffffffffffffffffffffffffffffffffffffffff169060200190929190803590602001909291905050506106e0565b60405180821515815260200191505060405180910390f35b6102f3600480360360208110156102dd57600080fd5b8101908080359060200190929190505050610793565b60405180821515815260200191505060405180910390f35b61034d6004803603602081101561032157600080fd5b81019080803573ffffffffffffffffffffffffffffffffffffffff1690602001909291905050506108a1565b6040518082815260200191505060405180910390f35b61036b6108e9565b6040518080602001828103825283818151815260200191508051906020019080838360005b838110156103ab578082015181840152602081019050610390565b50505050905090810190601f1680156103d85780820380516001836020036101000a031916815260200191505b509250505060405180910390f35b610432600480360360408110156103fc57600080fd5b81019080803573ffffffffffffffffffffffffffffffffffffffff1690602001909291908035906020019092919050505061098b565b60405180821515815260200191505060405180910390f35b6104966004803603604081101561046057600080fd5b81019080803573ffffffffffffffffffffffffffffffffffffffff16906020019092919080359060200190929190505050610a58565b60405180821515815260200191505060405180910390f35b610510600480360360408110156104c457600080fd5b81019080803573ffffffffffffffffffffffffffffffffffffffff169060200190929190803573ffffffffffffffffffffffffffffffffffffffff169060200190929190505050610a76565b6040518082815260200191505060405180910390f35b606060038054600181600116156101000203166002900480601f0160208091040260200160405190810160405280929190818152602001828054600181600116156101000203166002900480156105be5780601f10610593576101008083540402835291602001916105be565b820191906000526020600020905b8154815290600101906020018083116105a157829003601f168201915b5050505050905090565b60006105dc6105d5610b85565b8484610b8d565b6001905092915050565b6000600254905090565b60006105fd848484610d84565b6106be84610609610b85565b6106b9856040518060600160405280602881526020016113d960289139600160008b73ffffffffffffffffffffffffffffffffffffffff1673ffffffffffffffffffffffffffffffffffffffff168152602001908152602001600020600061066f610b85565b73ffffffffffffffffffffffffffffffffffffffff1673ffffffffffffffffffffffffffffffffffffffff168152602001908152602001600020546110459092919063ffffffff16565b610b8d565b600190509392505050565b6000600560009054906101000a900460ff16905090565b60006107896106ed610b85565b8461078485600160006106fe610b85565b73ffffffffffffffffffffffffffffffffffffffff1673ffffffffffffffffffffffffffffffffffffffff16815260200190815260200160002060008973ffffffffffffffffffffffffffffffffffffffff1673ffffffffffffffffffffffffffffffffffffffff16815260200190815260200160002054610afd90919063ffffffff16565b610b8d565b6001905092915050565b60008061079e610b85565b905060006107ab826108a1565b9050600073ffffffffffffffffffffffffffffffffffffffff168273ffffffffffffffffffffffffffffffffffffffff161415610833576040517f08c379a00000000000000000000000000000000000000000000000000000000081526004018080602001828103825260218152602001806114016021913960400191505060405180910390fd5b8381101561088c576040517f08c379a000000000000000000000000000000000000000000000000000000000815260040180806020018281038252602281526020018061136f6022913960400191505060405180910390fd5b61089682856110ff565b600192505050919050565b60008060008373ffffffffffffffffffffffffffffffffffffffff1673ffffffffffffffffffffffffffffffffffffffff168152602001908152602001600020549050919050565b606060048054600181600116156101000203166002900480601f0160208091040260200160405190810160405280929190818152602001828054600181600116156101000203166002900480156109815780601f1061095657610100808354040283529160200191610981565b820191906000526020600020905b81548152906001019060200180831161096457829003601f168201915b5050505050905090565b6000610a4e610998610b85565b84610a498560405180606001604052806025815260200161146b60259139600160006109c2610b85565b73ffffffffffffffffffffffffffffffffffffffff1673ffffffffffffffffffffffffffffffffffffffff16815260200190815260200160002060008a73ffffffffffffffffffffffffffffffffffffffff1673ffffffffffffffffffffffffffffffffffffffff168152602001908152602001600020546110459092919063ffffffff16565b610b8d565b6001905092915050565b6000610a6c610a65610b85565b8484610d84565b6001905092915050565b6000600160008473ffffffffffffffffffffffffffffffffffffffff1673ffffffffffffffffffffffffffffffffffffffff16815260200190815260200160002060008373ffffffffffffffffffffffffffffffffffffffff1673ffffffffffffffffffffffffffffffffffffffff16815260200190815260200160002054905092915050565b600080828401905083811015610b7b576040517f08c379a000000000000000000000000000000000000000000000000000000000815260040180806020018281038252601b8152602001807f536166654d6174683a206164646974696f6e206f766572666c6f77000000000081525060200191505060405180910390fd5b8091505092915050565b600033905090565b600073ffffffffffffffffffffffffffffffffffffffff168373ffffffffffffffffffffffffffffffffffffffff161415610c13576040517f08c379a00000000000000000000000000000000000000000000000000000000081526004018080602001828103825260248152602001806114476024913960400191505060405180910390fd5b600073ffffffffffffffffffffffffffffffffffffffff168273ffffffffffffffffffffffffffffffffffffffff161415610c99576040517f08c379a00000000000000000000000000000000000000000000000000000000081526004018080602001828103825260228152602001806113916022913960400191505060405180910390fd5b80600160008573ffffffffffffffffffffffffffffffffffffffff1673ffffffffffffffffffffffffffffffffffffffff16815260200190815260200160002060008473ffffffffffffffffffffffffffffffffffffffff1673ffffffffffffffffffffffffffffffffffffffff168152602001908152602001600020819055508173ffffffffffffffffffffffffffffffffffffffff168373ffffffffffffffffffffffffffffffffffffffff167f8c5be1e5ebec7d5bd14f71427d1e84f3dd0314c0f7b2291e5b200ac8c7c3b925836040518082815260200191505060405180910390a3505050565b600073ffffffffffffffffffffffffffffffffffffffff168373ffffffffffffffffffffffffffffffffffffffff161415610e0a576040517f08c379a00000000000000000000000000000000000000000000000000000000081526004018080602001828103825260258152602001806114226025913960400191505060405180910390fd5b600073ffffffffffffffffffffffffffffffffffffffff168273ffffffffffffffffffffffffffffffffffffffff161415610e90576040517f08c379a000000000000000000000000000000000000000000000000000000000815260040180806020018281038252602381526020018061134c6023913960400191505060405180910390fd5b610e9b8383836112c3565b610f06816040518060600160405280602681526020016113b3602691396000808773ffffffffffffffffffffffffffffffffffffffff1673ffffffffffffffffffffffffffffffffffffffff168152602001908152602001600020546110459092919063ffffffff16565b6000808573ffffffffffffffffffffffffffffffffffffffff1673ffffffffffffffffffffffffffffffffffffffff16815260200190815260200160002081905550610f99816000808573ffffffffffffffffffffffffffffffffffffffff1673ffffffffffffffffffffffffffffffffffffffff16815260200190815260200160002054610afd90919063ffffffff16565b6000808473ffffffffffffffffffffffffffffffffffffffff1673ffffffffffffffffffffffffffffffffffffffff168152602001908152602001600020819055508173ffffffffffffffffffffffffffffffffffffffff168373ffffffffffffffffffffffffffffffffffffffff167fddf252ad1be2c89b69c2b068fc378daa952ba7f163c4a11628f55a4df523b3ef836040518082815260200191505060405180910390a3505050565b60008383111582906110f2576040517f08c379a00000000000000000000000000000000000000000000000000000000081526004018080602001828103825283818151815260200191508051906020019080838360005b838110156110b757808201518184015260208101905061109c565b50505050905090810190601f1680156110e45780820380516001836020036101000a031916815260200191505b509250505060405180910390fd5b5082840390509392505050565b600073ffffffffffffffffffffffffffffffffffffffff168273ffffffffffffffffffffffffffffffffffffffff161415611185576040517f08c379a00000000000000000000000000000000000000000000000000000000081526004018080602001828103825260218152602001806114016021913960400191505060405180910390fd5b611191826000836112c3565b6111fc8160405180606001604052806022815260200161136f602291396000808673ffffffffffffffffffffffffffffffffffffffff1673ffffffffffffffffffffffffffffffffffffffff168152602001908152602001600020546110459092919063ffffffff16565b6000808473ffffffffffffffffffffffffffffffffffffffff1673ffffffffffffffffffffffffffffffffffffffff16815260200190815260200160002081905550611253816002546112c890919063ffffffff16565b600281905550600073ffffffffffffffffffffffffffffffffffffffff168273ffffffffffffffffffffffffffffffffffffffff167fddf252ad1be2c89b69c2b068fc378daa952ba7f163c4a11628f55a4df523b3ef836040518082815260200191505060405180910390a35050565b505050565b600082821115611340576040517f08c379a000000000000000000000000000000000000000000000000000000000815260040180806020018281038252601e8152602001807f536166654d6174683a207375627472616374696f6e206f766572666c6f77000081525060200191505060405180910390fd5b81830390509291505056fe45524332303a207472616e7366657220746f20746865207a65726f206164647265737345524332303a206275726e20616d6f756e7420657863656564732062616c616e636545524332303a20617070726f766520746f20746865207a65726f206164647265737345524332303a207472616e7366657220616d6f756e7420657863656564732062616c616e636545524332303a207472616e7366657220616d6f756e74206578636565647320616c6c6f77616e636545524332303a206275726e2066726f6d20746865207a65726f206164647265737345524332303a207472616e736665722066726f6d20746865207a65726f206164647265737345524332303a20617070726f76652066726f6d20746865207a65726f206164647265737345524332303a2064656372656173656420616c6c6f77616e63652062656c6f77207a65726fa264697066735822122001e5fee9985d08819bb37028731f89692d7f7c4e5706107bd8b0253b5581f68964736f6c634300070600334f776e61626c653a206e6577206f776e657220697320746865207a65726f2061646472657373a264697066735822122090cc6a514f90f8da12ae810cf8987ff12b55c0f576600eaf88d40e398be7e83564736f6c63430007060033",
  "linkReferences": {},
  "deployedLinkReferences": {}
}