{
  "_format": "hh-sol-artifact-1",
  "contractName": "Reader",
  "sourceName": "contracts/Reader.sol",
  "abi": [
    {
      "inputs": [
        {
          "internalType": "address",
          "name": "factory_",
          "type": "address"
        },
        {
          "internalType": "uint256",
          "name": "id_",
          "type": "uint256"
        }
      ],
      "name": "getGrant",
      "outputs": [
        {
          "components": [
            {
              "internalType": "uint256",
              "name": "id",
              "type": "uint256"
            },
            {
              "internalType": "address",
              "name": "manager",
              "type": "address"
            },
            {
              "internalType": "address",
              "name": "token",
              "type": "address"
            },
            {
              "internalType": "address",
              "name": "creator",
              "type": "address"
            },
            {
              "internalType": "address",
              "name": "poolAddress",
              "type": "address"
            },
            {
              "internalType": "string",
              "name": "logo",
              "type": "string"
            },
            {
              "internalType": "string",
              "name": "desc",
              "type": "string"
            },
            {
              "internalType": "string",
              "name": "link",
              "type": "string"
            },
            {
              "internalType": "string",
              "name": "name",
              "type": "string"
            },
            {
              "internalType": "uint256",
              "name": "price",
              "type": "uint256"
            },
            {
              "internalType": "uint256",
              "name": "rigidCapAmount",
              "type": "uint256"
            },
            {
              "internalType": "uint256",
              "name": "userRigidCapAmount",
              "type": "uint256"
            },
            {
              "internalType": "uint256",
              "name": "startAt",
              "type": "uint256"
            },
            {
              "internalType": "uint256",
              "name": "duration",
              "type": "uint256"
            },
            {
              "internalType": "uint256",
              "name": "latestUnlockAt",
              "type": "uint256"
            },
            {
              "internalType": "uint256",
              "name": "latestUnlockPrice",
              "type": "uint256"
            },
            {
              "internalType": "uint256",
              "name": "latestPrice",
              "type": "uint256"
            },
            {
              "internalType": "uint256",
              "name": "totalInvest",
              "type": "uint256"
            },
            {
              "internalType": "uint256",
              "name": "investors",
              "type": "uint256"
            },
            {
              "internalType": "uint256",
              "name": "unlockAmount",
              "type": "uint256"
            },
            {
              "internalType": "bool",
              "name": "isGrantEnded",
              "type": "bool"
            },
            {
              "internalType": "bool",
              "name": "isGrantCompleted",
              "type": "bool"
            }
          ],
          "internalType": "struct Reader.GrantInfo",
          "name": "",
          "type": "tuple"
        }
      ],
      "stateMutability": "view",
      "type": "function"
    }
  ],
  "bytecode": "0x608060405234801561001057600080fd5b50610f8c806100206000396000f3fe608060405234801561001057600080fd5b506004361061002b5760003560e01c806340b334f714610030575b600080fd5b61004a60048036038101906100459190610982565b610060565b6040516100579190610dc9565b60405180910390f35b6100686106b5565b600083905060008173ffffffffffffffffffffffffffffffffffffffff1663b8cc6c93856040518263ffffffff1660e01b81526004016100a89190610deb565b60006040518083038186803b1580156100c057600080fd5b505afa1580156100d4573d6000803e3d6000fd5b505050506040513d6000823e3d601f19601f820116820180604052508101906100fd9190610a28565b905060008160200151905060008173ffffffffffffffffffffffffffffffffffffffff1663fc0c546a6040518163ffffffff1660e01b815260040160206040518083038186803b15801561015057600080fd5b505afa158015610164573d6000803e3d6000fd5b505050506040513d601f19601f820116820180604052508101906101889190610959565b905060008060008060008673ffffffffffffffffffffffffffffffffffffffff16637c7b5e536040518163ffffffff1660e01b815260040160a06040518083038186803b1580156101d857600080fd5b505afa1580156101ec573d6000803e3d6000fd5b505050506040513d601f19601f820116820180604052508101906102109190610a69565b945094509450945094506000806000806000808c73ffffffffffffffffffffffffffffffffffffffff166346686e996040518163ffffffff1660e01b815260040160c06040518083038186803b15801561026957600080fd5b505afa15801561027d573d6000803e3d6000fd5b505050506040513d601f19601f820116820180604052508101906102a19190610ae0565b955095509550955095509550604051806102c001604052808f6000015181526020018f6020015173ffffffffffffffffffffffffffffffffffffffff1681526020018e73ffffffffffffffffffffffffffffffffffffffff1663fc0c546a6040518163ffffffff1660e01b815260040160206040518083038186803b15801561032957600080fd5b505afa15801561033d573d6000803e3d6000fd5b505050506040513d601f19601f820116820180604052508101906103619190610959565b73ffffffffffffffffffffffffffffffffffffffff1681526020018e73ffffffffffffffffffffffffffffffffffffffff166302d05d3f6040518163ffffffff1660e01b815260040160206040518083038186803b1580156103c257600080fd5b505afa1580156103d6573d6000803e3d6000fd5b505050506040513d601f19601f820116820180604052508101906103fa9190610959565b73ffffffffffffffffffffffffffffffffffffffff1681526020018e73ffffffffffffffffffffffffffffffffffffffff16631755ff216040518163ffffffff1660e01b815260040160206040518083038186803b15801561045b57600080fd5b505afa15801561046f573d6000803e3d6000fd5b505050506040513d601f19601f820116820180604052508101906104939190610959565b73ffffffffffffffffffffffffffffffffffffffff1681526020018f6040015181526020018f6060015181526020018f6080015181526020018d73ffffffffffffffffffffffffffffffffffffffff166306fdde036040518163ffffffff1660e01b815260040160006040518083038186803b15801561051257600080fd5b505afa158015610526573d6000803e3d6000fd5b505050506040513d6000823e3d601f19601f8201168201806040525081019061054f91906109e7565b81526020018c81526020018b81526020018a81526020018981526020018881526020018781526020018681526020018581526020018481526020018381526020018281526020018e73ffffffffffffffffffffffffffffffffffffffff1663763f772a6040518163ffffffff1660e01b815260040160206040518083038186803b1580156105dc57600080fd5b505afa1580156105f0573d6000803e3d6000fd5b505050506040513d601f19601f8201168201806040525081019061061491906109be565b151581526020018e73ffffffffffffffffffffffffffffffffffffffff16635fc152b26040518163ffffffff1660e01b815260040160206040518083038186803b15801561066157600080fd5b505afa158015610675573d6000803e3d6000fd5b505050506040513d601f19601f8201168201806040525081019061069991906109be565b15158152509f5050505050505050505050505050505092915050565b604051806102c0016040528060008152602001600073ffffffffffffffffffffffffffffffffffffffff168152602001600073ffffffffffffffffffffffffffffffffffffffff168152602001600073ffffffffffffffffffffffffffffffffffffffff168152602001600073ffffffffffffffffffffffffffffffffffffffff1681526020016060815260200160608152602001606081526020016060815260200160008152602001600081526020016000815260200160008152602001600081526020016000815260200160008152602001600081526020016000815260200160008152602001600081526020016000151581526020016000151581525090565b60006107cb6107c684610e37565b610e06565b9050828152602081018484840111156107e357600080fd5b6107ee848285610ecb565b509392505050565b60008135905061080581610f11565b92915050565b60008151905061081a81610f11565b92915050565b60008151905061082f81610f28565b92915050565b600082601f83011261084657600080fd5b81516108568482602086016107b8565b91505092915050565b600060a0828403121561087157600080fd5b61087b60a0610e06565b9050600061088b84828501610944565b600083015250602061089f8482850161080b565b602083015250604082015167ffffffffffffffff8111156108bf57600080fd5b6108cb84828501610835565b604083015250606082015167ffffffffffffffff8111156108eb57600080fd5b6108f784828501610835565b606083015250608082015167ffffffffffffffff81111561091757600080fd5b61092384828501610835565b60808301525092915050565b60008135905061093e81610f3f565b92915050565b60008151905061095381610f3f565b92915050565b60006020828403121561096b57600080fd5b60006109798482850161080b565b91505092915050565b6000806040838503121561099557600080fd5b60006109a3858286016107f6565b92505060206109b48582860161092f565b9150509250929050565b6000602082840312156109d057600080fd5b60006109de84828501610820565b91505092915050565b6000602082840312156109f957600080fd5b600082015167ffffffffffffffff811115610a1357600080fd5b610a1f84828501610835565b91505092915050565b600060208284031215610a3a57600080fd5b600082015167ffffffffffffffff811115610a5457600080fd5b610a608482850161085f565b91505092915050565b600080600080600060a08688031215610a8157600080fd5b6000610a8f88828901610944565b9550506020610aa088828901610944565b9450506040610ab188828901610944565b9350506060610ac288828901610944565b9250506080610ad388828901610944565b9150509295509295909350565b60008060008060008060c08789031215610af957600080fd5b6000610b0789828a01610944565b9650506020610b1889828a01610944565b9550506040610b2989828a01610944565b9450506060610b3a89828a01610944565b9350506080610b4b89828a01610944565b92505060a0610b5c89828a01610944565b9150509295509295509295565b610b7281610e83565b82525050565b610b8181610e95565b82525050565b6000610b9282610e67565b610b9c8185610e72565b9350610bac818560208601610ecb565b610bb581610f00565b840191505092915050565b60006102c083016000830151610bd96000860182610dab565b506020830151610bec6020860182610b69565b506040830151610bff6040860182610b69565b506060830151610c126060860182610b69565b506080830151610c256080860182610b69565b5060a083015184820360a0860152610c3d8282610b87565b91505060c083015184820360c0860152610c578282610b87565b91505060e083015184820360e0860152610c718282610b87565b915050610100830151848203610100860152610c8d8282610b87565b915050610120830151610ca4610120860182610dab565b50610140830151610cb9610140860182610dab565b50610160830151610cce610160860182610dab565b50610180830151610ce3610180860182610dab565b506101a0830151610cf86101a0860182610dab565b506101c0830151610d0d6101c0860182610dab565b506101e0830151610d226101e0860182610dab565b50610200830151610d37610200860182610dab565b50610220830151610d4c610220860182610dab565b50610240830151610d61610240860182610dab565b50610260830151610d76610260860182610dab565b50610280830151610d8b610280860182610b78565b506102a0830151610da06102a0860182610b78565b508091505092915050565b610db481610ec1565b82525050565b610dc381610ec1565b82525050565b60006020820190508181036000830152610de38184610bc0565b905092915050565b6000602082019050610e006000830184610dba565b92915050565b6000604051905081810181811067ffffffffffffffff82111715610e2d57610e2c610efe565b5b8060405250919050565b600067ffffffffffffffff821115610e5257610e51610efe565b5b601f19601f8301169050602081019050919050565b600081519050919050565b600082825260208201905092915050565b6000610e8e82610ea1565b9050919050565b60008115159050919050565b600073ffffffffffffffffffffffffffffffffffffffff82169050919050565b6000819050919050565b60005b83811015610ee9578082015181840152602081019050610ece565b83811115610ef8576000848401525b50505050565bfe5b6000601f19601f8301169050919050565b610f1a81610e83565b8114610f2557600080fd5b50565b610f3181610e95565b8114610f3c57600080fd5b50565b610f4881610ec1565b8114610f5357600080fd5b5056fea26469706673582212200647edf4dbbf32705214ddb471c60f54d8bfb28e22f02c097ec2ea106a74a86364736f6c63430007060033",
  "linkReferences": {},
  "deployedLinkReferences": {}
}