{
  "_format": "hh-sol-artifact-1",
  "contractName": "TokenManagerV2Deployer",
  "sourceName": "contracts/TokenManagerV2Deployer.sol",
  "abi": [
    {
      "anonymous": false,
      "inputs": [
        {
          "indexed": true,
          "internalType": "address",
          "name": "previousOwner",
          "type": "address"
        },
        {
          "indexed": true,
          "internalType": "address",
          "name": "newOwner",
          "type": "address"
        }
      ],
      "name": "OwnershipTransferred",
      "type": "event"
    },
    {
      "anonymous": false,
      "inputs": [
        {
          "indexed": true,
          "internalType": "address",
          "name": "factory",
          "type": "address"
        }
      ],
      "name": "SetFactoryAddress",
      "type": "event"
    },
    {
      "inputs": [],
      "name": "deploy",
      "outputs": [
        {
          "internalType": "address",
          "name": "tokenManagerV2",
          "type": "address"
        }
      ],
      "stateMutability": "nonpayable",
      "type": "function"
    },
    {
      "inputs": [],
      "name": "factoryAddress",
      "outputs": [
        {
          "internalType": "address",
          "name": "",
          "type": "address"
        }
      ],
      "stateMutability": "view",
      "type": "function"
    },
    {
      "inputs": [
        {
          "internalType": "address",
          "name": "tokenManagerV2_",
          "type": "address"
        },
        {
          "internalType": "address",
          "name": "token_",
          "type": "address"
        },
        {
          "internalType": "address",
          "name": "creator_",
          "type": "address"
        },
        {
          "components": [
            {
              "internalType": "uint256",
              "name": "price",
              "type": "uint256"
            },
            {
              "internalType": "uint256",
              "name": "rigidCapAmount",
              "type": "uint256"
            },
            {
              "internalType": "uint256",
              "name": "userRigidCapAmount",
              "type": "uint256"
            },
            {
              "internalType": "uint256",
              "name": "startAt",
              "type": "uint256"
            },
            {
              "internalType": "uint256",
              "name": "duration",
              "type": "uint256"
            }
          ],
          "internalType": "struct ITokenManagerV2.GrantParams",
          "name": "grantParams_",
          "type": "tuple"
        },
        {
          "components": [
            {
              "internalType": "address",
              "name": "WBNB",
              "type": "address"
            },
            {
              "internalType": "address",
              "name": "V3factory",
              "type": "address"
            },
            {
              "internalType": "address",
              "name": "V3PositionManager",
              "type": "address"
            },
            {
              "internalType": "address",
              "name": "V3LPLocker",
              "type": "address"
            },
            {
              "internalType": "uint24",
              "name": "V3LPTradingFee",
              "type": "uint24"
            },
            {
              "internalType": "int24",
              "name": "tickLower",
              "type": "int24"
            },
            {
              "internalType": "int24",
              "name": "tickUpper",
              "type": "int24"
            },
            {
              "internalType": "uint256",
              "name": "amountToken",
              "type": "uint256"
            },
            {
              "internalType": "uint256",
              "name": "amountBNB",
              "type": "uint256"
            }
          ],
          "internalType": "struct ITokenManagerV2.PoolParams",
          "name": "poolParams_",
          "type": "tuple"
        }
      ],
      "name": "initializeTokenManagerV2",
      "outputs": [],
      "stateMutability": "nonpayable",
      "type": "function"
    },
    {
      "inputs": [],
      "name": "owner",
      "outputs": [
        {
          "internalType": "address",
          "name": "",
          "type": "address"
        }
      ],
      "stateMutability": "view",
      "type": "function"
    },
    {
      "inputs": [],
      "name": "renounceOwnership",
      "outputs": [],
      "stateMutability": "nonpayable",
      "type": "function"
    },
    {
      "inputs": [
        {
          "internalType": "address",
          "name": "factoryAddress_",
          "type": "address"
        }
      ],
      "name": "setFactoryAddress",
      "outputs": [],
      "stateMutability": "nonpayable",
      "type": "function"
    },
    {
      "inputs": [
        {
          "internalType": "address",
          "name": "newOwner",
          "type": "address"
        }
      ],
      "name": "transferOwnership",
      "outputs": [],
      "stateMutability": "nonpayable",
      "type": "function"
    }
  ],
  "bytecode": "0x608060405234801561001057600080fd5b50600061001b61006a565b600080546001600160a01b0319166001600160a01b0383169081178255604051929350917f8be0079c531659141344cd1fd0a4f28419497f9722a3daafe3b4186f6b6457e0908290a35061006e565b3390565b6142468061007d6000396000f3fe608060405234801561001057600080fd5b506004361061006d5760003560e01c8063715018a6146100725780637403824e1461007c578063775c300c1461008f57806383c17c55146100ad5780638da5cb5b146100c0578063966dae0e146100c8578063f2fde38b146100d0575b600080fd5b61007a6100e3565b005b61007a61008a3660046105a7565b61018f565b610097610235565b6040516100a49190610685565b60405180910390f35b61007a6100bb366004610586565b610293565b610097610368565b610097610377565b61007a6100de366004610586565b610386565b6100eb610488565b6001600160a01b03166100fc610368565b6001600160a01b031614610145576040805162461bcd60e51b815260206004820181905260248201526000805160206141f1833981519152604482015290519081900360640190fd5b600080546040516001600160a01b03909116907f8be0079c531659141344cd1fd0a4f28419497f9722a3daafe3b4186f6b6457e0908390a3600080546001600160a01b0319169055565b6001546001600160a01b031633146101c25760405162461bcd60e51b81526004016101b99061078f565b60405180910390fd5b60015460405163bbf19e7960e01b81526001600160a01b038781169263bbf19e79926101fc92909116908890889088908890600401610699565b600060405180830381600087803b15801561021657600080fd5b505af115801561022a573d6000803e3d6000fd5b505050505050505050565b6001546000906001600160a01b031633146102625760405162461bcd60e51b81526004016101b99061078f565b60006040516102709061048c565b604051809103906000f08015801561028c573d6000803e3d6000fd5b5091505090565b61029b610488565b6001600160a01b03166102ac610368565b6001600160a01b0316146102f5576040805162461bcd60e51b815260206004820181905260248201526000805160206141f1833981519152604482015290519081900360640190fd5b6001546001600160a01b03161561031e5760405162461bcd60e51b81526004016101b9906107ba565b600180546001600160a01b0319166001600160a01b0383169081179091556040517fb4dd887347efc97a6ad35fc9824a2ac4c0a6a04344d89bf05f3308c854325a6490600090a250565b6000546001600160a01b031690565b6001546001600160a01b031681565b61038e610488565b6001600160a01b031661039f610368565b6001600160a01b0316146103e8576040805162461bcd60e51b815260206004820181905260248201526000805160206141f1833981519152604482015290519081900360640190fd5b6001600160a01b03811661042d5760405162461bcd60e51b81526004018080602001828103825260268152602001806141cb6026913960400191505060405180910390fd5b600080546040516001600160a01b03808516939216917f8be0079c531659141344cd1fd0a4f28419497f9722a3daafe3b4186f6b6457e091a3600080546001600160a01b0319166001600160a01b0392909216919091179055565b3390565b6139c78061080483390190565b80356001600160a01b03811681146104b057600080fd5b919050565b8035600281900b81146104b057600080fd5b60006101208083850312156104da578182fd5b6104e3816107df565b9150506104ef82610499565b81526104fd60208301610499565b602082015261050e60408301610499565b604082015261051f60608301610499565b606082015261053060808301610573565b608082015261054160a083016104b5565b60a082015261055260c083016104b5565b60c082015260e082013560e082015261010080830135818301525092915050565b803562ffffff811681146104b057600080fd5b600060208284031215610597578081fd5b6105a082610499565b9392505050565b60008060008060008587036102208112156105c0578182fd5b6105c987610499565b95506105d760208801610499565b94506105e560408801610499565b935060a0605f19820112156105f8578182fd5b5060405160a0810181811067ffffffffffffffff8211171561061657fe5b8060405250606087013581526080870135602082015260a0870135604082015260c0870135606082015260e087013560808201528092505061065c8761010088016104c7565b90509295509295909350565b6001600160a01b03169052565b60020b9052565b62ffffff169052565b6001600160a01b0391909116815260200190565b60006102208201905060018060a01b038088168352808716602084015280861660408401528451606084015260208501516080840152604085015160a0840152606085015160c0840152608085015160e08401526101008185511681850152816020860151166101208501526040850151915061071a610140850183610668565b6060850151915061072f610160850183610668565b6080850151915061074461018085018361067c565b60a085015191506107596101a0850183610675565b60c0850151915061076e6101c0850183610675565b60e08501516101e08501528085015161020085015250509695505050505050565b6020808252601190820152701bdb9b1e48199858dd1bdc9e4818d85b1b607a1b604082015260600190565b6020808252600b908201526a1a5b9a5d1a585b1a5e995960aa1b604082015260600190565b60405181810167ffffffffffffffff811182821017156107fb57fe5b60405291905056fe60806040526002805461ff00191690553480156200001c57600080fd5b506000620000296200007d565b600080546001600160a01b0319166001600160a01b0383169081178255604051929350917f8be0079c531659141344cd1fd0a4f28419497f9722a3daafe3b4186f6b6457e0908290a3506001805562000081565b3390565b61393680620000916000396000f3fe6080604052600436106101cf5760003560e01c80636198e339116100f8578063bbf19e7911610090578063bbf19e79146104e4578063c45a015514610504578063ced72f8714610519578063d38f5a751461052e578063e2c7da8314610543578063e8b5e51f14610558578063f2fde38b14610560578063fc0c546a14610580578063fc9bb7fe14610595576101cf565b80636198e339146103f35780636386c1c714610413578063715018a614610440578063763f772a146104555780637c7b5e531461046a5780638da5cb5b14610490578063ad974f4c146104a5578063b91f3f97146104ba578063b98ad255146104cf576101cf565b80631f20286e1161016b5780631f20286e14610322578063407343871461033757806346686e991461034c5780634855abcd146103735780634e71d92d1461038a578063548e0b2c1461039f578063590e1ae3146103b45780635dd68f36146103c95780635fc152b2146103de576101cf565b806302d05d3f146101d4578063150b7a02146101ff578063158ef93e1461022c57806316a6a7d41461024e5780631755ff211461027b57806318160ddd146102905780631959a002146102a557806319706b38146102d457806319b16974146102fe575b600080fd5b3480156101e057600080fd5b506101e96105b5565b6040516101f69190613129565b60405180910390f35b34801561020b57600080fd5b5061021f61021a366004612f67565b6105c4565b6040516101f6919061325e565b34801561023857600080fd5b506102416105d5565b6040516101f69190613253565b34801561025a57600080fd5b5061026e610269366004613001565b6105de565b6040516101f6919061373e565b34801561028757600080fd5b506101e9610689565b34801561029c57600080fd5b5061026e61069e565b3480156102b157600080fd5b506102c56102c0366004612e1e565b6106a4565b6040516101f693929190613747565b3480156102e057600080fd5b506102e96106c9565b6040516101f69998979695949392919061313d565b34801561030a57600080fd5b5061031361071a565b6040516101f69392919061375f565b34801561032e57600080fd5b5061026e610732565b34801561034357600080fd5b50610241610752565b34801561035857600080fd5b50610361610760565b6040516101f696959493929190613804565b34801561037f57600080fd5b50610388610775565b005b34801561039657600080fd5b50610388610832565b3480156103ab57600080fd5b50610388610aa4565b3480156103c057600080fd5b50610388610cb4565b3480156103d557600080fd5b5061026e610dff565b3480156103ea57600080fd5b50610241610e05565b3480156103ff57600080fd5b5061038861040e366004613072565b610e39565b34801561041f57600080fd5b5061043361042e366004612e1e565b61116b565b6040516101f69190613719565b34801561044c57600080fd5b506103886111c7565b34801561046157600080fd5b50610241611273565b34801561047657600080fd5b5061047f61129d565b6040516101f69594939291906137e1565b34801561049c57600080fd5b506101e96112af565b3480156104b157600080fd5b5061026e6112be565b3480156104c657600080fd5b506103886112c4565b3480156104db57600080fd5b50610241611734565b3480156104f057600080fd5b506103886104ff366004612e56565b61173d565b34801561051057600080fd5b506101e9611b82565b34801561052557600080fd5b5061026e611b91565b34801561053a57600080fd5b5061026e611c38565b34801561054f57600080fd5b50610241611cc9565b610388611cd7565b34801561056c57600080fd5b5061038861057b366004612e1e565b611ef4565b34801561058c57600080fd5b506101e9611ff6565b3480156105a157600080fd5b506103886105b0366004613072565b61200b565b6003546001600160a01b031681565b630a85bd0160e11b95945050505050565b60025460ff1681565b600080836001600160a01b031663313ce5676040518163ffffffff1660e01b815260040160206040518083038186803b15801561061a57600080fd5b505afa15801561062e573d6000803e3d6000fd5b505050506040513d601f19601f8201168201806040525081019061065291906130eb565b60ff16905061067f836000015161067983600a0a86602001516120b190919063ffffffff16565b90612111565b9150505b92915050565b6006546201000090046001600160a01b031681565b60055481565b601b602052600090815260409020805460019091015460ff8082169161010090041683565b6012546013546014546015546016546017546001600160a01b0395861695948516949384169383169262ffffff600160a01b82041692600160b81b8204600290810b93600160d01b909304900b9189565b601854601954601a546001600160801b039091169083565b600061074c6064610679600a6107466112be565b906120b1565b90505b90565b600254610100900460ff1681565b600c54600d54600e54600f5460105460115486565b61077d612175565b6003546001600160a01b039081169116146107b35760405162461bcd60e51b81526004016107aa9061342d565b60405180910390fd5b6107bb610e05565b1580156107cd57506107cb611273565b155b6107e95760405162461bcd60e51b81526004016107aa90613533565b6002805461ff0019166101001790556040517fbf10926916f066f98405c3be81ca330109019b71c2291304b4ac3510e12dbbd09061082890429061373e565b60405180910390a1565b60026001541415610878576040805162461bcd60e51b815260206004820152601f602482015260008051602061387a833981519152604482015290519081900360640190fd5b60026001556000610887612175565b905060006108948261116b565b905061089e610e05565b6108ba5760405162461bcd60e51b81526004016107aa906135e9565b80516108d85760405162461bcd60e51b81526004016107aa9061334f565b6001600160a01b0382166000908152601b60205260409020600101805461ff00191661010017905560065460ff1661091257610912612179565b6040805160a0810182526007548152600854602082015260095491810191909152600a546060820152600b546080820152600061094d610dff565b9050600060028054906101000a90046001600160a01b03166001600160a01b031663313ce5676040518163ffffffff1660e01b815260040160206040518083038186803b15801561099d57600080fd5b505afa1580156109b1573d6000803e3d6000fd5b505050506040513d601f19601f820116820180604052508101906109d591906130eb565b60ff16905060006109fb83610679866020015188600001516120b190919063ffffffff16565b8551909150600090610a0d90836125aa565b8551909150600090610a279061067985600a88900a6120b1565b9050610a4760028054906101000a90046001600160a01b03168983612607565b610a518883612755565b876001600160a01b03167fb94bf7f9302edf52a596286915a69b4b0685574cffdedd0712e3c62f2550f0ba828442604051610a8e939291906137b0565b60405180910390a2505060018055505050505050565b610aac612175565b6003546001600160a01b03908116911614610ad95760405162461bcd60e51b81526004016107aa9061342d565b60026001541415610b1f576040805162461bcd60e51b815260206004820152601f602482015260008051602061387a833981519152604482015290519081900360640190fd5b60026001556000610b46610b31611b91565b601754600854610b40916125aa565b906125aa565b60065490915060ff16610b6b5760405162461bcd60e51b81526004016107aa906134a0565b600654610100900460ff1615610b935760405162461bcd60e51b81526004016107aa90613500565b60008111610bb35760405162461bcd60e51b81526004016107aa9061337c565b6006805461010061ff00199091161790556002546040805160a0810182526007548152600854602082015260095491810191909152600a546060820152600b546080820152600091610c1591620100009091046001600160a01b0316906105de565b90506000610c21610732565b601654909150600090610c3890610b4084866125aa565b600254600354919250610c5e916001600160a01b03620100009092048216911683612607565b610c6f610c69612175565b85612755565b7f322170ca41d50ff7a8a77d9cb193e8b68795830420631d1c834a4d0e9b0c1a72818542604051610ca2939291906137b0565b60405180910390a15050600180555050565b60026001541415610cfa576040805162461bcd60e51b815260206004820152601f602482015260008051602061387a833981519152604482015290519081900360640190fd5b60026001556000610d09612175565b90506000610d168261116b565b9050610d20611273565b610d3c5760405162461bcd60e51b81526004016107aa906133da565b805115801590610d4e57508060200151155b8015610d5f5750610d5d610e05565b155b610d7b5760405162461bcd60e51b81526004016107aa9061363c565b6001600160a01b0382166000908152601b602052604090206001908101805460ff191690911790558051610db0908390612755565b816001600160a01b03167f7ca5472b7ea78c2c0141c5a12ee6d170cf4ce8ed06be3d22c8252ddfc7a6a2c4826000015142604051610def9291906137a2565b60405180910390a2505060018055565b600f5490565b600080610e10610dff565b9050610e1a611273565b610e2f57610e26611c38565b1115905061074f565b6008541115905090565b610e41612175565b6003546001600160a01b03908116911614610e6e5760405162461bcd60e51b81526004016107aa9061342d565b60026001541415610eb4576040805162461bcd60e51b815260206004820152601f602482015260008051602061387a833981519152604482015290519081900360640190fd5b60026001819055546201000090046001600160a01b03166000610edf606461067960056107466112be565b600c549091504290610ef49062ed4e00612849565b10610f115760405162461bcd60e51b81526004016107aa9061331e565b600e54600d54610f229060026120b1565b1115610f405760405162461bcd60e51b81526004016107aa906135b2565b80831115610f605760405162461bcd60e51b81526004016107aa906132cb565b610f68610e05565b610f845760405162461bcd60e51b81526004016107aa906135e9565b6040516370a0823160e01b815281906001600160a01b038416906370a0823190610fb2903090600401613129565b60206040518083038186803b158015610fca57600080fd5b505afa158015610fde573d6000803e3d6000fd5b505050506040513d601f19601f82011682018060405250810190611002919061308a565b10156110205760405162461bcd60e51b81526004016107aa90613616565b6011546012906110309083612111565b1061104d5760405162461bcd60e51b81526004016107aa90613616565b42600c55600254611075906201000090046001600160a01b031661106f612175565b85612607565b600081841415611086576000611090565b61109082856125aa565b9050801561112157600254604051630852cd8d60e31b8152620100009091046001600160a01b0316906342966c68906110cd90849060040161373e565b602060405180830381600087803b1580156110e757600080fd5b505af11580156110fb573d6000803e3d6000fd5b505050506040513d601f19601f8201168201806040525081019061111f9190613036565b505b600e8054600d819055600090915560118054840190556040517f7ba0c186867384c420fd1414a2f5863419069d7c7f64372372768a229889b09f91610ca2918791859142906137c6565b611173612d6d565b506001600160a01b0381166000908152601b602090815260409182902082516060810184528154815260019091015460ff80821615159383019390935261010090049091161515918101919091525b919050565b6111cf612175565b6001600160a01b03166111e06112af565b6001600160a01b031614611229576040805162461bcd60e51b815260206004820181905260248201526000805160206138e1833981519152604482015290519081900360640190fd5b600080546040516001600160a01b03909116907f8be0079c531659141344cd1fd0a4f28419497f9722a3daafe3b4186f6b6457e0908390a3600080546001600160a01b0319169055565b600b54600a54600091429161128791612849565b108061074c575050600254610100900460ff1690565b600754600854600954600a54600b5485565b6000546001600160a01b031690565b60055490565b6112cc612175565b6003546001600160a01b039081169116146112f95760405162461bcd60e51b81526004016107aa9061342d565b6002600154141561133f576040805162461bcd60e51b815260206004820152601f602482015260008051602061387a833981519152604482015290519081900360640190fd5b6002600181905560408051610120810182526012546001600160a01b03908116825260135481166020830152601454811692820192909252601554918216606082015262ffffff600160a01b8304166080820152600160b81b8204830b830b830b60a0820152600160d01b909104820b820b90910b60c082015260165460e082015260175461010082015260006113d4612175565b82516002546040516370a0823160e01b815292935090916000916201000090046001600160a01b0316906370a0823190611412903090600401613129565b60206040518083038186803b15801561142a57600080fd5b505afa15801561143e573d6000803e3d6000fd5b505050506040513d601f19601f82011682018060405250810190611462919061308a565b90506000826001600160a01b03166370a08231306040518263ffffffff1660e01b81526004016114929190613129565b60206040518083038186803b1580156114aa57600080fd5b505afa1580156114be573d6000803e3d6000fd5b505050506040513d601f19601f820116820180604052508101906114e2919061308a565b6060860151601a54604051636198e33960e01b81529293506001600160a01b0390911691636198e339916115189160040161373e565b600060405180830381600087803b15801561153257600080fd5b505af1158015611546573d6000803e3d6000fd5b50506002546040516370a0823160e01b815260009350859250620100009091046001600160a01b0316906370a0823190611584903090600401613129565b60206040518083038186803b15801561159c57600080fd5b505afa1580156115b0573d6000803e3d6000fd5b505050506040513d601f19601f820116820180604052508101906115d4919061308a565b039050600082856001600160a01b03166370a08231306040518263ffffffff1660e01b81526004016116069190613129565b60206040518083038186803b15801561161e57600080fd5b505afa158015611632573d6000803e3d6000fd5b505050506040513d601f19601f82011682018060405250810190611656919061308a565b03905061167760028054906101000a90046001600160a01b03168784612607565b611682858783612607565b6040808801516018549151632142170760e11b81526001600160a01b03909116916342842e0e916116ba9130918b91906004016131c3565b600060405180830381600087803b1580156116d457600080fd5b505af11580156116e8573d6000803e3d6000fd5b50506018546040517f73eb181048289b9765e665f2e39cca3f91c0c5dab7baf3c51b2e4c033ad67aa6935061171f925042906137a2565b60405180910390a15050600180555050505050565b60065460ff1681565b611745612175565b6001600160a01b03166117566112af565b6001600160a01b03161461179f576040805162461bcd60e51b815260206004820181905260248201526000805160206138e1833981519152604482015290519081900360640190fd5b60025460ff16156117c25760405162461bcd60e51b81526004016107aa9061358d565b6001600160a01b0385166117e85760405162461bcd60e51b81526004016107aa906134d7565b6001600160a01b03841661180e5760405162461bcd60e51b81526004016107aa906133b3565b6001600160a01b0383166118345760405162461bcd60e51b81526004016107aa90613273565b836001600160a01b03166318160ddd6040518163ffffffff1660e01b815260040160206040518083038186803b15801561186d57600080fd5b505afa158015611881573d6000803e3d6000fd5b505050506040513d601f19601f820116820180604052508101906118a5919061308a565b60055560006118b485846105de565b905060006118c0610732565b9050806118da8460e001518461284990919063ffffffff16565b11156118f85760405162461bcd60e51b81526004016107aa90613453565b6001600260006101000a81548160ff02191690831515021790555086600460006101000a8154816001600160a01b0302191690836001600160a01b03160217905550856002806101000a8154816001600160a01b0302191690836001600160a01b0316021790555084600360006101000a8154816001600160a01b0302191690836001600160a01b03160217905550836007600082015181600001556020820151816001015560408201518160020155606082015181600301556080820151816004015590505082601260008201518160000160006101000a8154816001600160a01b0302191690836001600160a01b0316021790555060208201518160010160006101000a8154816001600160a01b0302191690836001600160a01b0316021790555060408201518160020160006101000a8154816001600160a01b0302191690836001600160a01b0316021790555060608201518160030160006101000a8154816001600160a01b0302191690836001600160a01b0316021790555060808201518160030160146101000a81548162ffffff021916908362ffffff16021790555060a08201518160030160176101000a81548162ffffff021916908360020b62ffffff16021790555060c082015181600301601a6101000a81548162ffffff021916908360020b62ffffff16021790555060e0820151816004015561010082015181600501559050506040518060c00160405280428152602001856000015181526020016000815260200160008152602001600081526020016000815250600c600082015181600001556020820151816001015560408201518160020155606082015181600301556080820151816004015560a0820151816005015590505050505050505050565b6004546001600160a01b031681565b60048054604080516358710f4560e11b8152905160009384936001600160a01b03169263b0e21e8a9281830192602092829003018186803b158015611bd557600080fd5b505afa158015611be9573d6000803e3d6000fd5b505050506040513d601f19601f82011682018060405250810190611c0d9190613056565b62ffffff169050611c32612710610679836007600101546120b190919063ffffffff16565b91505090565b6004805460408051631c71031360e31b8152905160009384936001600160a01b03169263e38818989281830192602092829003018186803b158015611c7c57600080fd5b505afa158015611c90573d6000803e3d6000fd5b505050506040513d601f19601f82011682018060405250810190611cb491906130eb565b60085460ff919091169150611c3290826120b1565b600654610100900460ff1681565b60026001541415611d1d576040805162461bcd60e51b815260206004820152601f602482015260008051602061387a833981519152604482015290519081900360640190fd5b6002600155346000611d2d612175565b90506000611d39610dff565b90506000611d468361116b565b6040805160a0810182526007548152600854602082015260095491810191909152600a546060820152600b5460808201529091506000611d84611c38565b905060008611611da65760405162461bcd60e51b81526004016107aa90613479565b42826060015110611dc95760405162461bcd60e51b81526004016107aa9061356a565b60408201518351611dda9088612849565b1115611df85760405162461bcd60e51b81526004016107aa9061329c565b80611e038588612849565b1115611e215760405162461bcd60e51b81526004016107aa90613403565b611e29611273565b15611e465760405162461bcd60e51b81526004016107aa906132f9565b8251611e53908790612849565b6001600160a01b0386166000908152601b6020526040902055600f8054870190558251611e8c57601054611e88906001612849565b6010555b80611e978588612849565b1415611ea557611ea5612179565b846001600160a01b03167f22362fd53da7e9833dab2bb7adb521163c164fb314a070b76b7fafb0ca4fd8c48742604051611ee09291906137a2565b60405180910390a250506001805550505050565b611efc612175565b6001600160a01b0316611f0d6112af565b6001600160a01b031614611f56576040805162461bcd60e51b815260206004820181905260248201526000805160206138e1833981519152604482015290519081900360640190fd5b6001600160a01b038116611f9b5760405162461bcd60e51b815260040180806020018281038252602681526020018061389a6026913960400191505060405180910390fd5b600080546040516001600160a01b03808516939216917f8be0079c531659141344cd1fd0a4f28419497f9722a3daafe3b4186f6b6457e091a3600080546001600160a01b0319166001600160a01b0392909216919091179055565b6002546201000090046001600160a01b031681565b612013612175565b6003546001600160a01b039081169116146120405760405162461bcd60e51b81526004016107aa9061342d565b600c5442906120529062ed4e00612849565b1061206f5760405162461bcd60e51b81526004016107aa9061331e565b600e8190556040517f910dbb9cfe1324158fc3073fcfcb06506dac4fd5658da1fc149ff19bb3e4dc80906120a690839042906137a2565b60405180910390a150565b6000826120c057506000610683565b828202828482816120cd57fe5b041461210a5760405162461bcd60e51b81526004018080602001828103825260218152602001806138c06021913960400191505060405180910390fd5b9392505050565b6000808211612164576040805162461bcd60e51b815260206004820152601a602482015279536166654d6174683a206469766973696f6e206279207a65726f60301b604482015290519081900360640190fd5b81838161216d57fe5b049392505050565b3390565b612181610e05565b61219d5760405162461bcd60e51b81526004016107aa906135e9565b6121a56128a1565b60408051610120810182526012546001600160a01b0390811680835260135482166020840152601454821693830193909352601554808216606084015262ffffff600160a01b8204166080840152600160b81b8104600290810b810b810b60a0850152600160d01b909104810b810b810b60c084015260165460e084015260175461010084015254919262010000909204169060008183106122475781612249565b825b90506000826001600160a01b0316846001600160a01b03161061226c578361226e565b825b90506000836001600160a01b0316856001600160a01b0316106122965785610100015161229c565b8560e001515b90506000846001600160a01b0316866001600160a01b0316106122c3578660e001516122ca565b8661010001515b6004805460405163a000bf4f60e01b81529293506000926001600160a01b039091169163a000bf4f916123019187918791016137a2565b60206040518083038186803b15801561231957600080fd5b505afa15801561232d573d6000803e3d6000fd5b505050506040513d601f19601f820116820180604052508101906123519190612e3a565b9050600061236586868b6080015185612939565b9050866001600160a01b031663d0e30db08a61010001516040518263ffffffff1660e01b81526004016000604051808303818588803b1580156123a757600080fd5b505af11580156123bb573d6000803e3d6000fd5b50505050506123d3888a604001518b60e00151612aa3565b6123e7878a604001518b6101000151612aa3565b6000604051806101600160405280886001600160a01b03168152602001876001600160a01b031681526020018b6080015162ffffff1681526020018b60a0015160020b81526020018b60c0015160020b81526020018681526020018581526020016000815260200160008152602001306001600160a01b03168152602001426103840181525090506000806000808d604001516001600160a01b03166388316456866040518263ffffffff1660e01b81526004016124a5919061366b565b608060405180830381600087803b1580156124bf57600080fd5b505af11580156124d3573d6000803e3d6000fd5b505050506040513d601f19601f820116820180604052508101906124f791906130a2565b9350935093509350600061250a85612bea565b601980546001600160801b0319166001600160801b0387161790556018869055601a8190556006805462010000600160b01b031916620100006001600160a01b038b16021760ff191660011790556040519091507f349a5134d5729502d70a88264720af4ccfc9b5dbf3866f51a0dc4e11401951ac9061259190879087908790879061377e565b60405180910390a1505050505050505050505050505050565b600082821115612601576040805162461bcd60e51b815260206004820152601e60248201527f536166654d6174683a207375627472616374696f6e206f766572666c6f770000604482015290519081900360640190fd5b50900390565b604080516001600160a01b038481166024830152604480830185905283518084039091018152606490920183526020820180516001600160e01b031663a9059cbb60e01b1781529251825160009485949389169392918291908083835b602083106126835780518252601f199092019160209182019101612664565b6001836020036101000a0380198251168184511680821785525050505050509050019150506000604051808303816000865af19150503d80600081146126e5576040519150601f19603f3d011682016040523d82523d6000602084013e6126ea565b606091505b5091509150818015612718575080511580612718575080806020019051602081101561271557600080fd5b50515b61274e576040805162461bcd60e51b815260206004820152600260248201526114d560f21b604482015290519081900360640190fd5b5050505050565b604080516000808252602082019092526001600160a01b0384169083906040518082805190602001908083835b602083106127a15780518252601f199092019160209182019101612782565b6001836020036101000a03801982511681845116808217855250505050505090500191505060006040518083038185875af1925050503d8060008114612803576040519150601f19603f3d011682016040523d82523d6000602084013e612808565b606091505b5050905080612844576040805162461bcd60e51b815260206004820152600360248201526253544560e81b604482015290519081900360640190fd5b505050565b60008282018381101561210a576040805162461bcd60e51b815260206004820152601b60248201527a536166654d6174683a206164646974696f6e206f766572666c6f7760281b604482015290519081900360640190fd5b612937600460009054906101000a90046001600160a01b03166001600160a01b03166364df049e6040518163ffffffff1660e01b815260040160206040518083038186803b1580156128f257600080fd5b505afa158015612906573d6000803e3d6000fd5b505050506040513d601f19601f8201168201806040525081019061292a9190612e3a565b612932611b91565b612755565b565b60408051610120810182526012546001600160a01b039081168252601354811660208301819052601454821683850152601554918216606084015262ffffff600160a01b8304166080840152600160b81b8204600290810b810b810b60a0850152600160d01b909204820b820b90910b60c083015260165460e0830152601754610100830152915163a167129560e01b81526000929063a1671295906129e79089908990899060040161319b565b602060405180830381600087803b158015612a0157600080fd5b505af1158015612a15573d6000803e3d6000fd5b505050506040513d601f19601f82011682018060405250810190612a399190612e3a565b60405163f637731d60e01b81529092506001600160a01b0383169063f637731d90612a68908690600401613129565b600060405180830381600087803b158015612a8257600080fd5b505af1158015612a96573d6000803e3d6000fd5b5050505050949350505050565b604080516001600160a01b038481166024830152604480830185905283518084039091018152606490920183526020820180516001600160e01b031663095ea7b360e01b1781529251825160009485949389169392918291908083835b60208310612b1f5780518252601f199092019160209182019101612b00565b6001836020036101000a0380198251168184511680821785525050505050509050019150506000604051808303816000865af19150503d8060008114612b81576040519150601f19603f3d011682016040523d82523d6000602084013e612b86565b606091505b5091509150818015612bb4575080511580612bb45750808060200190516020811015612bb157600080fd5b50515b61274e576040805162461bcd60e51b8152602060048201526002602482015261534160f01b604482015290519081900360640190fd5b60408051610120810182526012546001600160a01b0390811682526013548116602083015260145481168284018190526015549182166060840181905262ffffff600160a01b8404166080850152600160b81b8304600290810b810b810b60a0860152600160d01b909304830b830b90920b60c084015260165460e0840152601754610100840152925163095ea7b360e01b81526000939163095ea7b391612c97919087906004016131e7565b600060405180830381600087803b158015612cb157600080fd5b505af1158015612cc5573d6000803e3d6000fd5b5050505080606001516001600160a01b03166387d8de3d8260400151853030612cfb6312cc03004261284990919063ffffffff16565b6040518663ffffffff1660e01b8152600401612d1b959493929190613200565b602060405180830381600087803b158015612d3557600080fd5b505af1158015612d49573d6000803e3d6000fd5b505050506040513d601f19601f8201168201806040525081019061210a919061308a565b604080516060810182526000808252602082018190529181019190915290565b80356111c281613850565b8035600281900b81146111c257600080fd5b600060a08284031215612dbb578081fd5b60405160a0810181811067ffffffffffffffff82111715612dd857fe5b806040525080915082358152602083013560208201526040830135604082015260608301356060820152608083013560808201525092915050565b80356111c281613868565b600060208284031215612e2f578081fd5b813561210a81613850565b600060208284031215612e4b578081fd5b815161210a81613850565b6000806000806000858703610220811215612e6f578182fd5b8635612e7a81613850565b95506020870135612e8a81613850565b94506040870135612e9a81613850565b9350612ea98860608901612daa565b92506101006101208060ff1984011215612ec1578384fd5b612eca8161382c565b9250612ed7828a01612d8d565b8352612ee4818a01612d8d565b602084015250612ef76101408901612d8d565b6040830152612f096101608901612d8d565b6060830152612f1b6101808901612e13565b6080830152612f2d6101a08901612d98565b60a0830152612f3f6101c08901612d98565b60c08301526101e088013560e083015261020090970135968101969096525092959194509290565b600080600080600060808688031215612f7e578081fd5b8535612f8981613850565b94506020860135612f9981613850565b935060408601359250606086013567ffffffffffffffff80821115612fbc578283fd5b818801915088601f830112612fcf578283fd5b813581811115612fdd578384fd5b896020828501011115612fee578384fd5b9699959850939650602001949392505050565b60008060c08385031215613013578182fd5b823561301e81613850565b915061302d8460208501612daa565b90509250929050565b600060208284031215613047578081fd5b8151801515811461210a578182fd5b600060208284031215613067578081fd5b815161210a81613868565b600060208284031215613083578081fd5b5035919050565b60006020828403121561309b578081fd5b5051919050565b600080600080608085870312156130b7578182fd5b845160208601519094506001600160801b03811681146130d5578283fd5b6040860151606090960151949790965092505050565b6000602082840312156130fc578081fd5b815160ff8116811461210a578182fd5b6001600160a01b03169052565b60020b9052565b62ffffff169052565b6001600160a01b0391909116815260200190565b6001600160a01b03998a1681529789166020890152958816604088015293909616606086015262ffffff919091166080850152600290810b60a08501529390930b60c083015260e08201929092526101008101919091526101200190565b6001600160a01b03938416815291909216602082015262ffffff909116604082015260600190565b6001600160a01b039384168152919092166020820152604081019190915260600190565b6001600160a01b03929092168252602082015260400190565b6001600160a01b039586168152602081019490945291841660408401529092166060820152608081019190915260c060a08201819052600790820152661111519055531560ca1b60e08201526101000190565b901515815260200190565b6001600160e01b031991909116815260200190565b6020808252600f908201526e24b73b30b634b21031b932b0ba37b960891b604082015260600190565b602080825260159082015274045786365656473205573657220486172642043617605c1b604082015260600190565b602080825260149082015273115e18d959591cc8155b9b1bd8dac8131a5b5a5d60621b604082015260600190565b6020808252600b908201526a11dc985b9d08115b99195960aa1b604082015260600190565b602080825260179082015276131bd8dac814195c9a5bd908139bdd08115e1c1a5c9959604a1b604082015260600190565b602080825260139082015272139bdb8810db185a5b589b1948105b5bdd5b9d606a1b604082015260600190565b6020808252601f908201527f4e6f20776974686472617761626c652066756e647320617661696c61626c6500604082015260600190565b6020808252600d908201526c24b73b30b634b2103a37b5b2b760991b604082015260600190565b6020808252600f908201526e11dc985b9d08139bdd08115b991959608a1b604082015260600190565b60208082526010908201526f0457863656564732048617264204361760841b604082015260600190565b6020808252600c908201526b27b7363c9021b932b0ba37b960a11b604082015260600190565b6020808252600c908201526b3830b930b6b99032b93937b960a11b604082015260600190565b6020808252600d908201526c496e76616c69642056616c756560981b604082015260600190565b6020808252601c908201527f526571756972657320706f6f6c20746f20696e697469616c697a656400000000604082015260600190565b6020808252600f908201526e496e76616c696420666163746f727960881b604082015260600190565b602080825260199082015278233ab73239903430bb32903132b2b7103bb4ba34323930bbb760391b604082015260600190565b6020808252601c908201527f5465726d696e6174696f6e206973206e6f7420737570706f7274656400000000604082015260600190565b602080825260099082015268139bdd0814dd185c9d60ba1b604082015260600190565b6020808252600b908201526a125b9a5d1a585b1a5e995960aa1b604082015260600190565b6020808252601c908201527f556e6c6f636b205072696365204e6f7420596574205265616368656400000000604082015260600190565b60208082526013908201527211dc985b9d08139bdd0810dbdb5c1b195d1959606a1b604082015260600190565b6020808252600c908201526b155b9b1bd8dac8115b99195960a21b604082015260600190565b602080825260159082015274139bdb881499599d5b9918589b1948105b5bdd5b9d605a1b604082015260600190565b60006101608201905061367f82845161310c565b6020830151613691602084018261310c565b5060408301516136a46040840182613120565b5060608301516136b76060840182613119565b5060808301516136ca6080840182613119565b5060a083015160a083015260c083015160c083015260e083015160e0830152610100808401518184015250610120808401516137088285018261310c565b505061014092830151919092015290565b8151815260208083015115159082015260409182015115159181019190915260600190565b90815260200190565b92835290151560208301521515604082015260600190565b9283526001600160801b03919091166020830152604082015260600190565b9384526001600160801b039290921660208401526040830152606082015260800190565b918252602082015260400190565b9283526020830191909152604082015260600190565b93845260208401929092526040830152606082015260800190565b948552602085019390935260408401919091526060830152608082015260a00190565b958652602086019490945260408501929092526060840152608083015260a082015260c00190565b60405181810167ffffffffffffffff8111828210171561384857fe5b604052919050565b6001600160a01b038116811461386557600080fd5b50565b62ffffff8116811461386557600080fdfe5265656e7472616e637947756172643a207265656e7472616e742063616c6c004f776e61626c653a206e6577206f776e657220697320746865207a65726f2061646472657373536166654d6174683a206d756c7469706c69636174696f6e206f766572666c6f774f776e61626c653a2063616c6c6572206973206e6f7420746865206f776e6572a264697066735822122017b9b596b035678c37a2a7d0fdc59e2d266ceb9e3aefc370dc06091f77bc6f2064736f6c634300070600334f776e61626c653a206e6577206f776e657220697320746865207a65726f20616464726573734f776e61626c653a2063616c6c6572206973206e6f7420746865206f776e6572a26469706673582212207a48f5ddb6d301c55f7ff530163a79b757baaf5c2673cdba8624b986898727eb64736f6c63430007060033",
  "linkReferences": {},
  "deployedLinkReferences": {}
}